:100000000C943E000C9448000C9448000C9448005A
:100010000C9448000C9448000C9448000C94480040
:100020000C9448000C9448000C9448000C94480030
:100030000C9448000C9448000C9448000C94480020
:100040000C9448000C9448000C9448000C94480010
:100050000C9448000C9448000C9448000C94480000
:100060000C9448000C9448000C9448000C944800F0
:100070000C9448000C9448000C94480011241FBEB6
:10008000CFEFD8E0DEBFCDBF0E9455000C947700C3
:100090000C940000009741F0EFE9FFE03197F1F791
:1000A00000C000000197F6CF0895579A81B1806F84
:1000B00081B9C4E0D0E08BB180588BB982E390E085
:1000C0000E944A002197B9F7119AC1E01A9907C016
:1000D0008BB180588BB988EC90E00E944A0082B1C5
:1000E0008C2782B988E290E00E944A00EFCFF89412
:0200F000FFCF40
:00000001FF
