:100000000C943E000C9448000C9448000C9448005A
:100010000C9448000C9448000C9448000C94480040
:100020000C9448000C9448000C9448000C94480030
:100030000C9448000C9448000C9448000C94480020
:100040000C9448000C9448000C9448000C94480010
:100050000C9448000C9448000C9448000C94480000
:100060000C9448000C9448000C9448000C944800F0
:100070000C9448000C9448000C94480011241FBEB6
:10008000CFEFD8E0DEBFCDBF0E9455000C949100A9
:100090000C940000009741F0EFE9FFE03197F1F791
:1000A00000C000000197F6CF0895579A81B1806F84
:1000B00081B9C4E0D0E08BB180588BB982E390E085
:1000C0000E944A002197B9F7119A80E090E040E43D
:1000D00050E260E170E81A9916C09C01277033273E
:1000E0002230310569F024F4232B69F472B90BC076
:1000F0002430310539F02630310529F462B903C0C6
:1001000042B901C052B9019681322EE4920714F02F
:1001100080E090E0EFE9FFE03197F1F700C00000E8
:06012000DACFF894FFCFD6
:00000001FF
