:100000000C943E000C945B000C945B000C945B0021
:100010000C945B000C945B000C945B000C945B00F4
:100020000C945B000C945B000C945B000C945B00E4
:100030000C945B000C945B000C945B000C945B00D4
:100040000C945B000C945B000C945B000C945B00C4
:100050000C945B000C945B000C945B000C945B00B4
:100060000C945B000C945B000C945B000C945B00A4
:100070000C945B000C945B000C945B0011241FBE7D
:10008000CFEFD8E0DEBFCDBF11E0A0E0B1E0E8E700
:10009000F1E002C005900D92A230B107D9F721E03E
:1000A000A2E0B1E001C01D92AE30B207E1F70E94BC
:1000B00086000C94BA000C940000009719F0FC0123
:1000C000758364830895009719F0FC017783668334
:1000D0000895009731F06230710518F4FC017183C6
:1000E000608308950C946900009741F0EFE9FFE008
:1000F0003197F1F700C000000197F6CF0895BC01D9
:1001000080ED97E00E949200CB010895579A81B14B
:10011000806F81B98BB180588BB988EE93E00E94D3
:100120007400F8CF97FB072E16F4009407D077FDE4
:1001300009D00E94A60007FC05D03EF49095819559
:100140009F4F0895709561957F4F0895AA1BBB1B23
:1001500051E107C0AA1FBB1FA617B70710F0A61BC7
:10016000B70B881F991F5A95A9F780959095BC01E8
:08017000CD010895F894FFCFC2
:02017800E8039A
:00000001FF
