:100000000C943E000C945B000C945B000C945B0021
:100010000C945B000C945B000C945B000C945B00F4
:100020000C945B000C945B000C945B000C945B00E4
:100030000C945B000C945B000C945B000C945B00D4
:100040000C945B000C945B000C945B000C945B00C4
:100050000C9408020C945B000C945B000C945B0005
:100060000C945B000C945B000C945B000C945B00A4
:100070000C945B000C945B000C945B0011241FBE7D
:10008000CFEFD8E0DEBFCDBF12E0A0E0B1E0E6EBFD
:10009000FBE002C005900D92A230B107D9F722E033
:1000A000A2E0B2E001C01D92AA37B207E1F70E94B8
:1000B0004C020C94D9050C940000009719F0FC0137
:1000C000758364830895009719F0FC017783668334
:1000D0000895009731F06230710518F4FC017183C6
:1000E000608308950C946900EF92FF920F931F9321
:1000F000CF93DF93009709F475C09B01EC0160E09A
:1001000071E0C9010E94AB027C01892B09F46AC02D
:1001100060E071E080E090E00E94AB02009709F49B
:1001200061C00E948D028C0162E071E0C7010E94F3
:10013000B002892B79F40130110519F41982188263
:1001400015C00230110509F04DC01B821A8281E0F2
:1001500090E016C069E071E0C7010E94B002892BEF
:1001600091F40130110529F4198308831D870C8748
:1001700039C002301105B1F581E090E09B838A839C
:100180009F878E872FC062E171E0C7010E94B00295
:10019000892B61F40130110519F41D861C8622C0DB
:1001A00002301105F9F41F861E861CC06BE171E058
:1001B000C7010E94B002892BA9F460E071E080E0E1
:1001C00090E00E94AB02009769F00E948D0201301E
:1001D000110519F49D838C8305C00230110511F4BB
:1001E0009F838E83DF91CF911F910F91FF90EF90AE
:1001F0000895009799F1DB01FC011C9287858F938C
:1002000086858F9383858F9382858F9387818F9344
:1002100086818F9383818F9382818F9385858F933E
:1002200084858F9381858F9380858F9385818F932C
:1002300084818F9381818F9380818F9384E291E079
:100240009F938F93BF936F930E94EF028DB79EB7DA
:1002500044960FB6F8949EBF0FBE8DBF08957B01E4
:1002600040E050E070E4C0E2D0E110E8FC01A0E022
:10027000B0E09A0127703327AE15BF05E1F1C684BF
:10028000D784CD28C1F0C280D380CD28A1F42230FC
:10029000310571F02CF42115310569F412B90BC048
:1002A0002430310539F02630310529F4D2B903C0A4
:1002B00072B901C0C2B9C684D784CD28C9F0C28042
:1002C000D380CA94CD28A1F42230310571F02CF4EA
:1002D0002115310569F4D2B90BC02430310539F04C
:1002E0002630310529F412B903C0C2B901C072B970
:1002F00011967096C1CF4F5F5F4F4131E7E25E07C5
:1003000014F040E050E0EFE9FFE03197F1F700C072
:100310000000ACCF009741F0EFE9FFE03197F1F733
:1003200000C000000197F6CF0895BC0180ED97E072
:100330000E946502CB0108951092C50087E6809364
:10034000C40088E98093C100E2ECF0E08081877FFF
:10035000808380818460808308959091C00095FFA0
:10036000FCCF8093C6000895EF92FF920F931F93E6
:10037000CF93DF938C017B01EC01CE01801B910BAD
:100380008E159F0524F489910E94AD01F6CFDF916F
:10039000CF911F910F91FF90EF9008950F931F93AE
:1003A000CF93DF93CDB7DEB7C855D2400FB6F894E0
:1003B000DEBF0FBECDBF64E072E0CE018B509E4F1A
:1003C0000E94B902BE016B507E4F88E692E00E9407
:1003D00074008E010F5F1F4FB80188E692E00E9403
:1003E000F900F80101900020E9F73197BF01601B87
:1003F000710BC8010E94B401C85ADD4F0FB6F894C2
:10040000DEBF0FBECDBFDF91CF911F910F91089539
:100410001F920F920FB60F9211242F933F934F9379
:100420005F936F937F938F939F93AF93BF93EF935C
:10043000FF938091C600E0910202F0910302EC5F0D
:10044000FD4F80838A3071F4E0910202F091030243
:10045000EC5FFD4F10820E94CE01109203021092B9
:10046000020209C0809102029091030201969093CA
:10047000030280930202FF91EF91BF91AF919F9190
:100480008F917F916F915F914F913F912F910F903D
:100490000FBE0F901F901895579A81B1806F81B948
:1004A000C4E0D0E08BB180588BB982E390E00E9429
:1004B0008A012197B9F7F8940E949C01789461E031
:1004C00070E088E692E00E942F0197FB072E16F459
:1004D000009407D077FD09D00E94790207FC05D06F
:1004E0003EF4909581959F4F0895709561957F4F4B
:1004F0000895AA1BBB1B51E107C0AA1FBB1FA6176B
:10050000B70710F0A61BB70B881F991F5A95A9F7BC
:1005100080959095BC01CD010895FC01882799270D
:10052000E89421912032E9F3293010F02E30C8F3FD
:100530002B3241F02D3239F4689404C00E94E70256
:10054000820F911D219120532A30C0F31EF4909503
:1005500081959F4F089548E752E00E94C002089598
:10056000FB01DC018D91019080190110D9F3990BE9
:100570000895FB01DC0101900D920020E1F7089540
:10058000FA01A191B081009719F41097E1F0CD0123
:10059000DC01CD010D90002011F4C00113C0FB015E
:1005A0002191222319F02015D9F7F3CFFB012191D6
:1005B000201519F41E92119606C02223C1F70D9042
:1005C0000020A1F7D001FA01A193B08308957AE049
:1005D000979F902D879F802D910D11240895AEE057
:1005E000B0E0E5EFF2E00C94B0050D891E8986E0DD
:1005F0008C831A8309838FEF9FE79E838D83AE01DF
:10060000475E5F4F6F89788DCE0101960E9411037E
:10061000EF81F885E00FF11F10822E96E4E00C9434
:10062000CC05ABE0B0E0E7E1F3E00C94A2056C018F
:100630007B018A01FC0117821682838181FFCCC174
:10064000CE0101963C01F6019381F70193FD85915E
:1006500093FF81917F01882309F4BAC1853239F46F
:1006600093FD859193FF81917F01853229F4B60135
:1006700090E00E940805E7CF912C212C312CFFE15E
:10068000F315D8F08B3279F038F4803279F0833278
:10069000A1F4232D20611DC08D3261F0803369F4F7
:1006A000232D216016C0832D8260382EE32DE46057
:1006B0003E2E2AC0F32DF8601DC037FC2DC020ED62
:1006C000280F2A3040F08E32B9F436FC81C1232D38
:1006D0002064322E19C036FE06C08AE0989E200D96
:1006E0001124922E11C0EAE02E9E200D1124222EFC
:1006F000F32DF0623F2E08C08C3621F4832D8068E4
:10070000382E02C0883641F4F70193FD859193FF9E
:1007100081917F018111B3CF982F9F7D95549330A4
:1007200028F40C5F1F4F9FE399830DC0833631F08F
:10073000833771F0833509F059C021C0F8018081F9
:1007400089830E5F1F4F88248394912C530113C01B
:100750002801F2E04F0E511CF801A080B18036FE56
:1007600003C0692D70E002C06FEF7FEFC5010E94EA
:10077000FD044C018201F32DFF773F2E16C02801A6
:1007800022E0420E511CF801A080B18036FE03C069
:10079000692D70E002C06FEF7FEFC5010E94F20487
:1007A0004C01F32DF0683F2E820133FC1BC0822DDB
:1007B00090E088169906B0F4B60180E290E00E94BD
:1007C00008052A94F4CFF50137FC859137FE819115
:1007D0005F01B60190E00E94080521102A9421E0F3
:1007E000821A91088114910471F7E8C0843611F0DF
:1007F000893641F5F80137FE07C060817181828139
:1008000093810C5F1F4F08C060817181072E000C1F
:10081000880B990B0E5F1F4FF32DFF763F2E97FF2E
:1008200009C090958095709561957F4F8F4F9F4F30
:10083000F0683F2E2AE030E0A3010E944405882E94
:10084000861845C0853731F4232D2F7EB22E2AE03D
:1008500030E025C0932D997FB92E8F36C1F018F462
:10086000883579F0B5C0803719F0883721F0B0C0ED
:10087000E92FE061BE2EB4FE0DC0FB2DF460BF2E4B
:1008800009C034FE0AC0292F2660B22E06C028E017
:1008900030E005C020E130E002C020E132E0F801A4
:1008A000B7FE07C060817181828193810C5F1F4F09
:1008B00006C06081718180E090E00E5F1F4FA30150
:1008C0000E944405882E8618FB2DFF773F2E36FEAA
:1008D0000DC0232D2E7FA22E891458F434FE0BC098
:1008E00032FC09C0832D8E7EA82E05C0B82CA32C07
:1008F00003C0B82C01C0B92CA4FE0FC0FE01E80D46
:10090000F11D8081803321F49A2D997EA92E09C092
:10091000A2FE06C0B394B39404C08A2D867809F071
:10092000B394A3FC11C0A0FE06C0B21488F4280C36
:10093000922C9B180EC0B21460F4B60180E290E0D5
:100940000E940805B394F7CFB21418F42B1802C014
:10095000982C212CA4FE10C0B60180E390E00E94E8
:100960000805A2FE17C0A1FC03C088E790E002C002
:1009700088E590E0B6010CC08A2D867859F0A1FE7A
:1009800002C08BE201C080E2A7FC8DE2B60190E0DC
:100990000E940805891438F4B60180E390E00E94B3
:1009A00008059A94F7CF8A94F301E80DF11D808130
:1009B000B60190E00E9408058110F5CF222009F4CD
:1009C00042CEB60180E290E00E9408052A94F6CF5C
:1009D000F6018681978102C08FEF9FEF2B96E2E1AF
:1009E0000C94BE05FC010590615070400110D8F7D1
:1009F000809590958E0F9F1F0895FC016150704067
:100A000001900110D8F7809590958E0F9F1F089543
:100A10000F931F93CF93DF93FB01238121FD03C02D
:100A20008FEF9FEF2CC022FF16C046815781248193
:100A300035814217530744F4A081B1819D012F5F96
:100A40003F4F318320838C93268137812F5F3F4F27
:100A50003783268314C08B01EC01FB010084F185F0
:100A6000E02D0995892BE1F6D80116968D919C9180
:100A70001797019617969C938E931697CE01DF9148
:100A8000CF911F910F910895FA01AA27283051F1B3
:100A9000203181F1E8946F936E7F6E5F7F4F8F4FAF
:100AA0009F4FAF4FB1E03ED0B4E03CD0670F781F0E
:100AB000891F9A1FA11D680F791F8A1F911DA11DF3
:100AC0006A0F711D811D911DA11D20D009F468942C
:100AD0003F912AE0269F11243019305D3193DEF6D4
:100AE000CF010895462F4770405D4193B3E00FD08A
:100AF000C9F7F6CF462F4F70405D4A3318F0495D75
:100B000031FD4052419302D0A9F7EACFB4E0A69557
:100B10009795879577956795BA95C9F70097610579
:100B2000710508959B01AC010A2E069457954795CF
:100B300037952795BA95C9F7620F731F841F951FC4
:100B4000A01D08952F923F924F925F926F927F92D5
:100B50008F929F92AF92BF92CF92DF92EF92FF92CD
:100B60000F931F93CF93DF93CDB7DEB7CA1BDB0B79
:100B70000FB6F894DEBF0FBECDBF09942A8839881E
:100B800048885F846E847D848C849B84AA84B98425
:100B9000C884DF80EE80FD800C811B81AA81B98131
:100BA000CE0FD11D0FB6F894DEBF0FBECDBFED0145
:060BB0000895F894FFCF48
:100BB60020004D4F56455550004D4F5645444F5712
:100BC6004E0053544F504D4F5645005345545350C5
:100BD600454544007C3D3D3D3D3D3D3D3D3D3D3D26
:100BE6003D3D3D3D3D3D3D3D3D3D3D3D3D3D7C0A23
:100BF6007C204D656368616E6963616C205379730F
:100C060074656D20737461746520200A7C3D3D3DDA
:100C16003D3D3D3D3D3D3D3D3D3D3D3D3D3D3D3DFE
:100C26003D3D3D3D3D3D7C0A7C20446972313A2084
:100C360025640A7C205370656564313A2025640A70
:100C46007C20486569676874313A2025640A7C20EF
:100C56004D6F76696E67313A2025640A7C0A7C20DE
:100C6600446972323A2025640A7C205370656564B3
:100C7600323A2025640A7C20486569676874323AEE
:100C86002025640A7C204D6F76696E67323A2025EE
:100C9600640A3D3D3D3D3D3D3D3D3D3D3D3D3D3D8A
:100CA6003D3D3D3D3D3D3D3D3D3D3D3D7C0A0A0AC8
:020CB60000003C
:00000001FF
