:100000000C943E000C945B000C945B000C945B0021
:100010000C945B000C945B000C945B000C945B00F4
:100020000C945B000C945B000C945B000C945B00E4
:100030000C945B000C945B000C945B000C945B00D4
:100040000C945B000C945B000C945B000C945B00C4
:100050000C9431020C945B000C945B000C945B00DC
:100060000C945B000C945B000C945B000C945B00A4
:100070000C945B000C945B000C945B0011241FBE7D
:10008000CFEFD8E0DEBFCDBF12E0A0E0B1E0E8E006
:10009000FCE002C005900D92A230B107D9F722E032
:1000A000A2E0B2E001C01D92AA37B207E1F70E94B8
:1000B00075020C9402060C940000009719F0FC01E4
:1000C000758364830895009719F0FC017783668334
:1000D0000895009731F06230710518F4FC017183C6
:1000E000608308950C946900EF92FF920F931F9321
:1000F000CF93DF93009709F475C09B01EC0160E09A
:1001000071E0C9010E94D4027C01892B09F46AC004
:1001100060E071E080E090E00E94D402009709F472
:1001200061C00E94B6028C0162E071E0C7010E94CA
:10013000D902892B79F40130110519F4198218823A
:1001400015C00230110509F04DC01B821A8281E0F2
:1001500090E016C069E071E0C7010E94D902892BC6
:1001600091F40130110529F4198308831D870C8748
:1001700039C002301105B1F581E090E09B838A839C
:100180009F878E872FC062E171E0C7010E94D9026C
:10019000892B61F40130110519F41D861C8622C0DB
:1001A00002301105F9F41F861E861CC06BE171E058
:1001B000C7010E94D902892BA9F460E071E080E0B8
:1001C00090E00E94D402009769F00E94B6020130CC
:1001D000110519F49D838C8305C00230110511F4BB
:1001E0009F838E83DF91CF911F910F91FF90EF90AE
:1001F0000895009799F1DB01FC011C9287858F938C
:1002000086858F9383858F9382858F9387818F9344
:1002100086818F9383818F9382818F9385858F933E
:1002200084858F9381858F9380858F9385818F932C
:1002300084818F9381818F9380818F9384E291E079
:100240009F938F93BF936F930E9418038DB79EB7B0
:1002500044960FB6F8949EBF0FBE8DBF0895682ECA
:10026000592E6B01C0E0D0E014EFE12EFF24F3948F
:1002700000EDA02E07E0B02E40E180E2982E90E441
:10028000892E20E8722EE62DF52D00E010E00C15E9
:100290001D0509F461C084819581892B11F4F582D3
:1002A000E48286819781892B11F4F782E682668148
:1002B00077816115710511F464EF71E0C5010E9449
:1002C0008E029B01660F771F660F771FCE010E947B
:1002D0008E0266857785672BD9F062817381672BE3
:1002E000B9F4009711F472B813C02817390711F444
:1002F00082B80EC0B901660F771F8617970711F4F1
:1003000092B806C0620F731F8617970709F442B9A7
:1003100066857785672BE1F06281738161307105B5
:10032000B9F4009711F442B913C02817390711F432
:1003300092B80EC0B901660F771F8617970711F4A0
:1003400082B806C0260F371F8217930709F472B8C8
:100350000F5F1F4F70969BCF2196C1328EE4D80756
:1003600014F0C0E0D0E08FE99FE00197F1F700C002
:10037000000089CF009741F0EFE9FFE03197F1F7F6
:1003800000C000000197F6CF08951092C50087E6DF
:100390008093C40088E98093C100E2ECF0E08081A2
:1003A000877F808380818460808308959091C000DE
:1003B00095FFFCCF8093C6000895EF92FF920F93B4
:1003C0001F93CF93DF938C017B01EC01CE01801B47
:1003D000910B8E159F0524F489910E94D601F6CFCA
:1003E000DF91CF911F910F91FF90EF9008950F93A0
:1003F0001F93CF93DF93CDB7DEB7C855D2400FB66A
:10040000F894DEBF0FBECDBF64E072E0CE018B502A
:100410009E4F0E94E202BE016B507E4F88E692E042
:100420000E9474008E010F5F1F4FB80188E692E0B2
:100430000E94F900F80101900020E9F73197BF010F
:10044000601B710BC8010E94DD01C85ADD4F0FB659
:10045000F894DEBF0FBECDBFDF91CF911F910F91FA
:1004600008951F920F920FB60F9211242F933F936E
:100470004F935F936F937F938F939F93AF93BF93AC
:10048000EF93FF938091C600E0910202F091030286
:10049000EC5FFD4F80838A3071F4E0910202F091AD
:1004A0000302EC5FFD4F10820E94F70110920302DD
:1004B0001092020209C080910202909103020196FB
:1004C0009093030280930202FF91EF91BF91AF914D
:1004D0009F918F917F916F915F914F913F912F915C
:1004E0000F900FBE0F901F901895579A81B1806F93
:1004F00081B9C4E0D0E08BB180588BB982E390E041
:100500000E94BA012197B9F7F8940E94C501789426
:1005100061E070E088E692E00E942F0197FB072ED1
:1005200016F4009407D077FD09D00E94A20207FCC0
:1005300005D03EF4909581959F4F089570956195F3
:100540007F4F0895AA1BBB1B51E107C0AA1FBB1F09
:10055000A617B70710F0A61BB70B881F991F5A954F
:10056000A9F780959095BC01CD010895FC018827DD
:100570009927E89421912032E9F3293010F02E30A8
:10058000C8F32B3241F02D3239F4689404C00E9434
:100590001003820F911D219120532A30C0F31EF4C5
:1005A000909581959F4F089548E752E00E94E90297
:1005B0000895FB01DC018D91019080190110D9F3A0
:1005C000990B0895FB01DC0101900D920020E1F7E9
:1005D0000895FA01A191B081009719F41097E1F004
:1005E000CD01DC01CD010D90002011F4C00113C03C
:1005F000FB012191222319F02015D9F7F3CFFB013C
:100600002191201519F41E92119606C02223C1F7DC
:100610000D900020A1F7D001FA01A193B0830895B5
:100620007AE0979F902D879F802D910D112408953A
:10063000AEE0B0E0EEE1F3E00C94D9050D891E893F
:1006400086E08C831A8309838FEF9FE79E838D83D7
:10065000AE01475E5F4F6F89788DCE0101960E9493
:100660003A03EF81F885E00FF11F10822E96E4E047
:100670000C94F505ABE0B0E0E0E4F3E00C94CB05BE
:100680006C017B018A01FC0117821682838181FF44
:10069000CCC1CE0101963C01F6019381F70193FD97
:1006A000859193FF81917F01882309F4BAC1853236
:1006B00039F493FD859193FF81917F01853229F46F
:1006C000B60190E00E943105E7CF912C212C312C0E
:1006D000FFE1F315D8F08B3279F038F4803279F0FD
:1006E0008332A1F4232D20611DC08D3261F080334F
:1006F00069F4232D216016C0832D8260382EE32DEE
:10070000E4603E2E2AC0F32DF8601DC037FC2DC0DA
:1007100020ED280F2A3040F08E32B9F436FC81C12A
:10072000232D2064322E19C036FE06C08AE0989E22
:10073000200D1124922E11C0EAE02E9E200D1124CE
:10074000222EF32DF0623F2E08C08C3621F4832D2B
:100750008068382E02C0883641F4F70193FD8591F8
:1007600093FF81917F018111B3CF982F9F7D955485
:10077000933028F40C5F1F4F9FE399830DC083369D
:1007800031F0833771F0833509F059C021C0F80189
:10079000808189830E5F1F4F88248394912C53019D
:1007A00013C02801F2E04F0E511CF801A080B18067
:1007B00036FE03C0692D70E002C06FEF7FEFC50108
:1007C0000E9426054C018201F32DFF773F2E16C0B3
:1007D000280122E0420E511CF801A080B18036FEB3
:1007E00003C0692D70E002C06FEF7FEFC5010E946A
:1007F0001B054C01F32DF0683F2E820133FC1BC01A
:10080000822D90E088169906B0F4B60180E290E05F
:100810000E9431052A94F4CFF50137FC859137FE0B
:1008200081915F01B60190E00E94310521102A9468
:1008300021E0821A91088114910471F7E8C084368E
:1008400011F0893641F5F80137FE07C060817181EA
:10085000828193810C5F1F4F08C060817181072ED8
:10086000000C880B990B0E5F1F4FF32DFF763F2E68
:1008700097FF09C090958095709561957F4F8F4F38
:100880009F4FF0683F2E2AE030E0A3010E946D05E3
:10089000882E861845C0853731F4232D2F7EB22E41
:1008A0002AE030E025C0932D997FB92E8F36C1F014
:1008B00018F4883579F0B5C0803719F0883721F001
:1008C000B0C0E92FE061BE2EB4FE0DC0FB2DF46078
:1008D000BF2E09C034FE0AC0292F2660B22E06C0E2
:1008E00028E030E005C020E130E002C020E132E045
:1008F000F801B7FE07C060817181828193810C5F2E
:100900001F4F06C06081718180E090E00E5F1F4F35
:10091000A3010E946D05882E8618FB2DFF773F2EC0
:1009200036FE0DC0232D2E7FA22E891458F434FEDE
:100930000BC032FC09C0832D8E7EA82E05C0B82CBA
:10094000A32C03C0B82C01C0B92CA4FE0FC0FE011B
:10095000E80DF11D8081803321F49A2D997EA92E16
:1009600009C0A2FE06C0B394B39404C08A2D867851
:1009700009F0B394A3FC11C0A0FE06C0B21488F421
:10098000280C922C9B180EC0B21460F4B60180E2C1
:1009900090E00E943105B394F7CFB21418F42B18ED
:1009A00002C0982C212CA4FE10C0B60180E390E078
:1009B0000E943105A2FE17C0A1FC03C088E790E0A9
:1009C00002C088E590E0B6010CC08A2D867859F007
:1009D000A1FE02C08BE201C080E2A7FC8DE2B6015D
:1009E00090E00E943105891438F4B60180E390E06C
:1009F0000E9431059A94F7CF8A94F301E80DF11D16
:100A00008081B60190E00E9431058110F5CF22204F
:100A100009F442CEB60180E290E00E9431052A94AA
:100A2000F6CFF6018681978102C08FEF9FEF2B965C
:100A3000E2E10C94E705FC01059061507040011063
:100A4000D8F7809590958E0F9F1F0895FC016150F7
:100A5000704001900110D8F7809590958E0F9F1FE0
:100A600008950F931F93CF93DF93FB01238121FD03
:100A700003C08FEF9FEF2CC022FF16C04681578125
:100A8000248135814217530744F4A081B1819D012F
:100A90002F5F3F4F318320838C93268137812F5FD7
:100AA0003F4F3783268314C08B01EC01FB01008488
:100AB000F185E02D0995892BE1F6D80116968D91E7
:100AC0009C911797019617969C938E931697CE013B
:100AD000DF91CF911F910F910895FA01AA27283035
:100AE00051F1203181F1E8946F936E7F6E5F7F4FFB
:100AF0008F4F9F4FAF4FB1E03ED0B4E03CD0670F77
:100B0000781F891F9A1FA11D680F791F8A1F911DC9
:100B1000A11D6A0F711D811D911DA11D20D009F419
:100B200068943F912AE0269F11243019305D31935B
:100B3000DEF6CF010895462F4770405D4193B3E044
:100B40000FD0C9F7F6CF462F4F70405D4A3318F0EB
:100B5000495D31FD4052419302D0A9F7EACFB4E09C
:100B6000A6959795879577956795BA95C9F7009754
:100B70006105710508959B01AC010A2E06945795F5
:100B8000479537952795BA95C9F7620F731F841F4C
:100B9000951FA01D08952F923F924F925F926F92E2
:100BA0007F928F929F92AF92BF92CF92DF92EF92FD
:100BB000FF920F931F93CF93DF93CDB7DEB7CA1B7E
:100BC000DB0B0FB6F894DEBF0FBECDBF09942A88A9
:100BD000398848885F846E847D848C849B84AA8451
:100BE000B984C884DF80EE80FD800C811B81AA81DE
:100BF000B981CE0FD11D0FB6F894DEBF0FBECDBFA9
:080C0000ED010895F894FFCF07
:100C080020004D4F56455550004D4F5645444F57BF
:100C18004E0053544F504D4F564500534554535072
:100C2800454544007C3D3D3D3D3D3D3D3D3D3D3DD3
:100C38003D3D3D3D3D3D3D3D3D3D3D3D3D3D7C0AD0
:100C48007C204D656368616E6963616C20537973BC
:100C580074656D20737461746520200A7C3D3D3D88
:100C68003D3D3D3D3D3D3D3D3D3D3D3D3D3D3D3DAC
:100C78003D3D3D3D3D3D7C0A7C20446972313A2032
:100C880025640A7C205370656564313A2025640A1E
:100C98007C20486569676874313A2025640A7C209D
:100CA8004D6F76696E67313A2025640A7C0A7C208C
:100CB800446972323A2025640A7C20537065656461
:100CC800323A2025640A7C20486569676874323A9C
:100CD8002025640A7C204D6F76696E67323A20259C
:100CE800640A3D3D3D3D3D3D3D3D3D3D3D3D3D3D38
:100CF8003D3D3D3D3D3D3D3D3D3D3D3D7C0A0A0A76
:020D08000000E9
:00000001FF
