:100000000C943E000C945B000C945B000C945B0021
:100010000C945B000C945B000C945B000C945B00F4
:100020000C945B000C945B000C945B000C945B00E4
:100030000C945B000C945B000C945B000C945B00D4
:100040000C945B000C945B000C945B000C945B00C4
:100050000C942C010C945B000C945B000C945B00E2
:100060000C945B000C945B000C945B000C945B00A4
:100070000C945B000C945B000C945B0011241FBE7D
:10008000CFEFD8E0DEBFCDBF11E0A0E0B1E0EEE6FB
:10009000F4E002C005900D92A632B107D9F721E035
:1000A000A6E2B1E001C01D92AE39B207E1F70E94AD
:1000B00075010C9435020C940000009719F0FC01B6
:1000C000758364830895009719F0FC017783668334
:1000D0000895009731F06230710518F4FC017183C6
:1000E000608308950C946900009741F0EFE9FFE008
:1000F0003197F1F700C000000197F6CF0895BC01D9
:1001000080ED97E00E94B201CB0108951092C500E6
:1001100087E68093C40088E98093C100E2ECF0E0B8
:100120008081877F8083808184608083089590911F
:10013000C00095FFFCCF8093C60008950F931F93D6
:10014000CF93DF9362E071E088E291E00E94F801D2
:10015000892B09F47CC062E071E080E090E00E94AD
:10016000F8018C01009709F472C00E94DA01EC01D9
:1001700064E071E0C8010E94FD01892B91F4C13057
:10018000D10529F410928D0110928C0118C022978C
:1001900009F05DC010928F0110928E0181E090E015
:1001A0001CC06BE071E0C8010E94FD01892BD1F4F5
:1001B000C130D10549F4D0938D01C0938C01D09307
:1001C0009901C093980143C0229709F040C081E093
:1001D00090E090938F0180938E0190939B01809388
:1001E0009A0135C064E171E0C8010E94FD01892BCC
:1001F00079F4C130D10529F4109299011092980137
:1002000026C0229721F510929B0110929A011FC0DF
:100210006DE171E0C8010E94FD01892BC1F462E02B
:1002200071E080E090E00E94F801009781F00E9468
:10023000DA01C130D10529F49093910180939001A6
:1002400006C0229721F49093930180939201DF914D
:10025000CF911F910F9108951F920F920FB60F9299
:1002600011242F933F934F935F936F937F938F93BB
:100270009F93AF93BF93CF93EF93FF93C091C6002B
:100280008C2F0E949700E0912601F0912701E85DF4
:10029000FE4FC083CA3071F4E0912601F09127012E
:1002A000E85DFE4F10820E949E001092270110927E
:1002B000260109C080912601909127010196909313
:1002C000270180932601FF91EF91CF91BF91AF91CC
:1002D0009F918F917F916F915F914F913F912F915E
:1002E0000F900FBE0F901F901895579A81B1806F95
:1002F00081B9C4E0D0E08BB180588BB982E390E043
:100300000E9474002197B9F7F8940E9486007894AF
:100310008BB180588BB9119AC0E0D0E082E0E82E12
:100320000AE110E0FF24F3941A9914C08BB18058AD
:100330008BB982B18E2582B98C2F8F5B0E9497007A
:10034000CE010196B8010E94B201EC0188EC90E068
:100350000E94740082B18F2582B984E190E00E94EE
:100360007400E2CF97FB072E16F4009407D077FDB8
:1003700009D00E94C60107FC05D03EF490958195F6
:100380009F4F0895709561957F4F0895AA1BBB1BE1
:1003900051E107C0AA1FBB1FA617B70710F0A61B85
:1003A000B70B881F991F5A95A9F780959095BC01A6
:1003B000CD010895FC0188279927E89421912032E6
:1003C000E9F3293010F02E30C8F32B3241F02D32F2
:1003D00039F4689404C00E942D02820F911D21916E
:1003E00020532A30C0F31EF4909581959F4F0895B5
:1003F0004CE951E00E9406020895FB01DC018D9159
:10040000019080190110D9F3990B0895FA01A19177
:10041000B081009719F41097E1F0CD01DC01CD0116
:100420000D90002011F4C00113C0FB012191222383
:1004300019F02015D9F7F3CFFB012191201519F4FC
:100440001E92119606C02223C1F70D900020A1F73D
:10045000D001FA01A193B08308957AE0979F902D7F
:0E046000879F802D910D11240895F894FFCFF1
:10046E00E80320004D4F56455550004D4F5645441C
:10047E004F574E0053544F504D4F56450053455411
:06048E00535045454400F7
:00000001FF
